:020000040000fa
:080000000002040000000000f2
:020000040000fa
:040008008e04000062
:020000040000fa
:04000c008e0400005e
:020000040000fa
:040010008e0400005a
:020000040000fa
:040014008e04000056
:020000040000fa
:040018008e04000052
:020000040000fa
:04001c008e0400004e
:020000040000fa
:040020008e0400004a
:020000040000fa
:040024008e04000046
:020000040000fa
:040028008e04000042
:020000040000fa
:04002c008e0400003e
:020000040000fa
:040030008e0400003a
:020000040000fa
:040034008e04000036
:020000040000fa
:040038008e04000032
:020000040000fa
:04003c008e0400002e
:020000040000fa
:040040008e0400002a
:020000040000fa
:040044008e04000026
:020000040000fa
:040048007003000041
:020000040000fa
:04004c008e0400001e
:020000040000fa
:040050008e0400001a
:020000040000fa
:040054008e04000016
:020000040000fa
:040058008e04000012
:020000040000fa
:04005c008e0300000f
:020000040000fa
:040060008e0400000a
:020000040000fa
:040064008e04000006
:020000040000fa
:040068008e04000002
:020000040000fa
:04006c008e040000fe
:020000040000fa
:040070008e040000fa
:020000040000fa
:040074008e040000f6
:020000040000fa
:040078008e040000f2
:020000040000fa
:04007c008e040000ee
:020000040000fa
:040080008e040000ea
:020000040000fa
:040084008e040000e6
:020000040000fa
:040088008e040000e2
:020000040000fa
:04008c008e040000de
:020000040000fa
:040090008e040000da
:020000040000fa
:04009400fa0200006c
:020000040000fa
:040098008e040000d2
:020000040000fa
:04009c008e040000ce
:020000040000fa
:0400a0008e040000ca
:020000040000fa
:0400a4008e040000c6
:020000040000fa
:0400a8008e040000c2
:020000040000fa
:0400ac008e040000be
:020000040000fa
:0400b0008e040000ba
:020000040000fa
:0400b4008e040000b6
:020000040000fa
:0400b8008e040000b2
:020000040000fa
:0400bc008e040000ae
:020000040000fa
:0400c0008e040000aa
:020000040000fa
:0400c4008e040000a6
:020000040000fa
:0400c8008e040000a2
:020000040000fa
:0400cc008e0400009e
:020000040000fa
:0400d0008e0400009a
:020000040000fa
:0400d4008e04000096
:020000040000fa
:0400d8008e04000092
:020000040000fa
:0400dc008e0400008e
:020000040000fa
:0400e0008e0400008a
:020000040000fa
:0400e4008e04000086
:020000040000fa
:0400e8008e04000082
:020000040000fa
:0400ec008e0400007e
:020000040000fa
:0400f0008e0400007a
:020000040000fa
:0400f4008e04000076
:020000040000fa
:0400f8008e04000072
:020000040000fa
:0400fc008e0400006e
:020000040000fa
:040100008e04000069
:020000040000fa
:040104008e04000065
:020000040000fa
:040108008e04000061
:020000040000fa
:04010c008e0400005d
:020000040000fa
:040110008e04000059
:020000040000fa
:040114008e04000055
:020000040000fa
:040118008e04000051
:020000040000fa
:04011c008e0400004d
:020000040000fa
:040120008e04000049
:020000040000fa
:040124008e04000045
:020000040000fa
:040128008e04000041
:020000040000fa
:04012c008e0400003d
:020000040000fa
:040130008e04000039
:020000040000fa
:040134008e04000035
:020000040000fa
:040138008e04000031
:020000040000fa
:04013c008e0400002d
:020000040000fa
:040140008e04000029
:020000040000fa
:040144008e04000025
:020000040000fa
:040148008e04000021
:020000040000fa
:04014c008e0400001d
:020000040000fa
:040150008e04000019
:020000040000fa
:040154008e04000015
:020000040000fa
:040158008e04000011
:020000040000fa
:04015c008e0400000d
:020000040000fa
:040160008e04000009
:020000040000fa
:040164008e04000005
:020000040000fa
:040168008e04000001
:020000040000fa
:04016c008e040000fd
:020000040000fa
:040170008e040000f9
:020000040000fa
:040174008e040000f5
:020000040000fa
:040178008e040000f1
:020000040000fa
:04017c008e040000ed
:020000040000fa
:040180008e040000e9
:020000040000fa
:040184008e040000e5
:020000040000fa
:040188008e040000e1
:020000040000fa
:04018c008e040000dd
:020000040000fa
:040190008e040000d9
:020000040000fa
:040194008e040000d5
:020000040000fa
:040198008e040000d1
:020000040000fa
:04019c008e040000cd
:020000040000fa
:0401a0008e040000c9
:020000040000fa
:0401a4008e040000c5
:020000040000fa
:0401a8008e040000c1
:020000040000fa
:0401ac008e040000bd
:020000040000fa
:0401b0008e040000b9
:020000040000fa
:0401b4008e040000b5
:020000040000fa
:0401b8008e040000b1
:020000040000fa
:0401bc008e040000ad
:020000040000fa
:0401c0008e040000a9
:020000040000fa
:0401c4008e040000a5
:020000040000fa
:0401c8008e040000a1
:020000040000fa
:0401cc008e0400009d
:020000040000fa
:0401d0008e04000099
:020000040000fa
:0401d4008e04000095
:020000040000fa
:0401d8008e04000091
:020000040000fa
:0401dc008e0400008d
:020000040000fa
:0401e0008e04000089
:020000040000fa
:0401e4008e04000085
:020000040000fa
:0401e8008e04000081
:020000040000fa
:0401ec008e0400007d
:020000040000fa
:0401f0008e04000079
:020000040000fa
:0401f4008e04000075
:020000040000fa
:0401f8008e04000071
:020000040000fa
:0401fc008e0400006d
:020000040000fa
:040200008e04000068
:020000040000fa
:040204008e04000064
:020000040000fa
:040208008e04000060
:020000040000fa
:04020c008e0400005c
:020000040000fa
:040210008e04000058
:020000040000fa
:040214008e04000054
:020000040000fa
:040218008e04000050
:020000040000fa
:04021c008e0400004c
:020000040000fa
:040220008e04000048
:020000040000fa
:040224008e04000044
:020000040000fa
:040228008e04000040
:020000040000fa
:04022c008e0400003c
:020000040000fa
:040230008e04000038
:020000040000fa
:040234008e04000034
:020000040000fa
:040238008e04000030
:020000040000fa
:04023c008e0400002c
:020000040000fa
:040240008e04000028
:020000040000fa
:040244008e04000024
:020000040000fa
:040248008e04000020
:020000040000fa
:04024c008e0400001c
:020000040000fa
:040250008e04000018
:020000040000fa
:040254008e04000014
:020000040000fa
:040258008e04000010
:020000040000fa
:04025c008e0400000c
:020000040000fa
:040260008e04000008
:020000040000fa
:040264008e04000004
:020000040000fa
:040268008e04000000
:020000040000fa
:04026c008e040000fc
:020000040000fa
:040270008e040000f8
:020000040000fa
:040274008e040000f4
:020000040000fa
:040278008e040000f0
:020000040000fa
:04027c008e040000ec
:020000040000fa
:040280008e040000e8
:020000040000fa
:040284008e040000e4
:020000040000fa
:040288008e040000e0
:020000040000fa
:04028c008e040000dc
:020000040000fa
:040290008e040000d8
:020000040000fa
:040294008e040000d4
:020000040000fa
:040298008e040000d0
:020000040000fa
:04029c008e040000cc
:020000040000fa
:0402a0008e040000c8
:020000040000fa
:0402a4008e040000c4
:020000040000fa
:0402a8008e040000c0
:020000040000fa
:0402ac008e040000bc
:020000040000fa
:0402b0008e040000b8
:020000040000fa
:0402b4008e040000b4
:020000040000fa
:0402b8008e040000b0
:020000040000fa
:0402bc008e040000ac
:020000040000fa
:0402c0008e040000a8
:020000040000fa
:0402c4008e040000a4
:020000040000fa
:0402c8008e040000a0
:020000040000fa
:0402cc008e0400009c
:020000040000fa
:0402d0008e04000098
:020000040000fa
:0402d4008e04000094
:020000040000fa
:0402d8008e04000090
:020000040000fa
:0402dc008e0400008c
:020000040000fa
:0402e0008e04000088
:020000040000fa
:0402e4008e04000084
:020000040000fa
:0402e8008e04000080
:020000040000fa
:0402ec008e0400007c
:020000040000fa
:0402f0008e04000078
:020000040000fa
:0402f4008e04000074
:020000040000fa
:0402f8008e04000070
:020000040000fa
:0402fc008e0400006c
:020000040000fa
:040300008e04000067
:020000040000fa
:040304008e04000063
:020000040000fa
:040308008e0400005f
:020000040000fa
:04030c008e0400005b
:020000040000fa
:040310008e04000057
:020000040000fa
:100400004fe824000eff24000e01880000000000c9
:10041000000020000000e000020032000001200087
:1004200020028800140007003e0107000000e000e1
:1004300003003a006076200001002000020037002f
:100440000000200001002000810f70000100320038
:100450000f000700000020000000e0000200320052
:100460000000020000000000d204020000000000b2
:100470000040da000000fe00200020000000e00044
:1004800002003200100020009001880000000600e9
:10049000a1028800800478000000eb001f003700f4
:1004a000e284440054a0b4009905ba00e2844400f8
:1004b00054a0b4009906ba00e284440054a0b400e9
:1004c0000006eb00476fde00fd07b200ae018800ba
:1004d000636ce10003003a000ad801000000eb0061
:1004e0000e003700606ce10008003a00004deb00a0
:1004f0000a05e800020039003420ec000af0a000f0
:100500008b05e900f9ff3e00040037006168e10057
:10051000010032000086eb000b00070019c7ba008b
:100520000e04e0001905ba0003003a000a00e000da
:10053000dbff3a0000000600fe07b200ae028800b2
:100540008a047800f5ff37000cd0a300e20f4d00bd
:100550001c00390089027800354dba000a05e80010
:10056000020039003420ec000af0a0008b05e900fd
:100570000f003200254dba000a05e80002003900dc
:100580003420ec000af0a0008b05e90008003200de
:100590000c00e0000600320015cdba000a05e800a4
:1005a000020039003420ec000af0a0008b05e900bd
:1005b0008984e80054a0b4000b00e000e2ff3a0098
:1005c000000006009902ba00055d78008b05e9007d
:1005d000f7ff3200c82ade00055d78008b05e900d0
:1005e000f3ff32000c00e000f1ff320019ddba0029
:1005f000eeff37003600f800809fbe00829fbe00ed
:10060000849fbe00869fbe003200f8003400f800d0
:1006100010002000a0018800100020009001880038
:10062000000000000000fa000368a90011808000ab
:10063000f07c2000808f50001b003e001080800066
:100640008000400040002100008040001000780041
:10065000ce010700108080008000400040fa210099
:100660000080400010007800dc010700108080004e
:100670008000400040f4220000804000100078001c
:10068000ea010700108080008000400040ee230057
:100690000080400010007800f80107001080800002
:1006a0000000e8001080880011808000007d20009c
:1006b000808f500001003a000230ef000080fa0005
:1006c0003400f9003200f9004f03be004f02be00b3
:1006d0004f01be004f00be003600f900004006008a
:1006e0003200f8003400f800881f7800180020005d
:1006f000a801880018002000980188000000000070
:100700004f0478000000fa000108a9000080fa00f8
:100710003400f9003200f900004006003600f8000d
:10072000809fbe00829fbe00849fbe00869fbe0049
:10073000881f78003200f8003400f8001000200014
:10074000a001880010002000900188000000000037
:100750000000fa0001a8a90011808000f07c2000b0
:10076000808f50005b003e001880800000188000e1
:100770008000eb00127220008289b900e002b9000b
:100780008401780003014100137220000300b800c7
:100790000101410082007800521720000300200070
:1007a0006100070000007800610d2000808040009b
:1007b00008014400400021000000410001087800c9
:1007c00018808000101880008000eb00e279200083
:1007d0008289b900e002b900840178000301410078
:1007e000e37920000300b800010141008200780095
:1007f00062162000030020004b0007000000780074
:1008000021072000808040000801440040fa2100b8
:100810000000410001087800188080002018800046
:100820008000eb00e27920008289b900e002b90083
:100830008401780003014100e37920000300b8003f
:1008400001014100820078005218200003002000be
:100850003500070000007800a10e200080804000d5
:100860000801440040f42200000041000108780023
:1008700018808000301880008000eb004274200057
:100880008289b900e002b9008401780003014100c7
:10089000437420000300b800010141008200780089
:1008a000f2172000030020001f000700000078005e
:1008b000610e2000808040000801440040ee2300cb
:1008c0000000410001087800108080000000e8006e
:1008d0001080880011808000007d2000808f5000f3
:1008e00004003a0021a8a90021e3a90013e1a9000e
:1008f00018cea9000080fa003400f9003200f90097
:100900004f0478004f03be004f02be004f01be00ef
:100910004f00be003600f900004006000040da003b
:100920000000fe0000000500839f68000100e00059
:1009300002003d0060001000e08018000300e000ad
:1009400002003d0060011100e08119000500070070
:100950004f00e00002003b0060001000e080180043
:10096000000006006022b800060220000000d0004f
:100970008180d2000482d2008582d2000000a000d3
:100980000202520083825a00030031000202420038
:1009900083824a000000a1000603e900f3ff3a0049
:0409a000000006004d
:020000040000fa
:1009a4000000fa004f0007000230ef001b00370080
:1009b4001080800080004000400021000080400042
:1009c400c15d200001087800108080008000400094
:1009d40040fa210000804000c15d20000108780039
:1009e400108080008000400040f42200008040001d
:1009f400c15d200001087800108080008000400064
:100a040040ee230000804000c15d20000108780012
:100a1400108080000000e8001080880011808000b1
:100a2400f07c2000808f5000e1ff36000230ef00a0
:100a34000000000010708000640060000000e0000e
:100a4400fcff3a00880007008700070018cea800c2
:100a5400190ea9000230ef0011e1a9001fe1a9005d
:100a640013e1a80021a8a80021e3a80000000000c9
:100a74000119800000002800008060000000e000f0
:100a8400fbff3a000000000010708000640060006a
:100a94000000e000fcff3a0073000700720007004a
:100aa40018cea900190ea8000230ef0011e1a80029
:100ab4001fe1a800000000001070800064006000c6
:100ac4000000e000fcff3a00670007006600070032
:100ad400190ea90011e1a9001fe1a90000000000fe
:100ae400d4ff37000000fa0014cea900230ea90099
:100af400150ea9000e4ea900004ea80081338000f7
:100b0400f00f2c000080600000c0a000803388003b
:100b1400226ea900146ea9000629ef000148800086
:100b240080ff2f00008060005000b3000048880060
:100b340091338000f00f2c008080600000102100b1
:100b4400010070009033880014aea9001029ef0052
:100b54005148800080ff2f00008060005000b300e7
:100b6400504888009133800000fc2f000080600012
:100b74002001b30090338800148ea9001a29ef00d5
:100b8400a148800080ff2f00008060005000b30067
:100b9400a0488800b1338000f00f2c0080806000f2
:100ba4000030210001007000b0338800232ea9001a
:100bb400152ea9002429ef00f148800080ff2f00a2
:100bc400008060005000b300f0488800d03f22004d
:100bd4006008880081088000f0fc2f00008060001d
:100be4000040a0008008880061428000f0ff2800d7
:100bf40080806000000023000100700060428800d3
:100c04000368a9002368a80050bf2600d008880004
:100c1400f1088000f0fc2f0000806000f0088800dc
:100c24001fe1a9002142800080ff2f0000806000a6
:100c34000010a000204288000108a9002108a80093
:100c4400b05f23007008880091088000f0fc2f003a
:100c5400008060009008880013e1a9000f000700dd
:100c64000080fa00000006000200fa000000eb0019
:100c7400000f78000000eb00000f7800010037003f
:100c84001e0fe80070de2f009e007800808f500059
:100c9400fbff36000080fa00000006000000fa00a6
:100ca40031428000f0f82f00008060000040a00076
:100cb4003042880001a8a90021a8a900144ea80068
:100cc400224ea800142ea800222ea800000ea80070
:100cd4000e0ea80014eea80022eea8002143a900dd
:100ce4002063a90001198000f0f12f00008060004a
:100cf4000060a000001988002043a800111980009a
:100d0400f0cf2f00008060000090a0001019880030
:100d14001119800030f82f00008060000040a0000e
:100d24001019880025e3a90021198000f00f2e0076
:100d340000806000201988002463ef0041198000be
:100d4400f00f2c000080600000a0a0004019880073
:100d54004119800000fc2f00008060000020a000ea
:100d6400401988002783a9002763a8002703a80047
:100d74002683a9002663a8002603a80021e3a9006e
:100d84000080fa00000006000200fa00000f78005c
:100d94001e0078008000eb00127520008289b900e3
:100da400e702b900840178000301410013752000b3
:100db4000300b800010141008200780002242400ed
:100dc400f3002000e6fe07000000780020488800b9
:100dd4000080fa00000006000200fa00000f78000c
:100de4001e0078008000eb00127520008289b90093
:100df400e702b90084017800030141001375200063
:100e04000300b8000101410082007800022424009c
:100e1400f3002000d2fe070000007800704888002c
:100e24000080fa00000006000200fa00000f7800bb
:100e34001e0078008000eb00127520008289b90042
:100e4400e702b90084017800030141001375200012
:100e54000300b8000101410082007800022424004c
:100e6400f3002000befe070000007800c0488800a0
:100e74000080fa00000006000200fa00000f78006b
:100e84001e0078008000eb00127520008289b900f2
:100e9400e702b900840178000301410013752000c2
:100ea4000300b800010141008200780002242400fc
:100eb400f3002000aafe0700000078001049880013
:080ec4000080fa0000000600a6
:020000040000fa
:100ecc0004100000803e00008000000000100000b4
:100edc000200000082000000d00700000210000099
:0c0eec0002000000800000000000000078
:020000040000fa
:020000040005f5
:045740009fff0000c7
:020000040000fa
:020000040005f5
:04575000fdff000059
:00000001FF
