:020000040000fa
:080000000002040000000000f2
:020000040000fa
:0400080040030000b1
:020000040000fa
:04000c0040030000ad
:020000040000fa
:0400100040030000a9
:020000040000fa
:0400140040030000a5
:020000040000fa
:0400180040030000a1
:020000040000fa
:04001c00400300009d
:020000040000fa
:040020004003000099
:020000040000fa
:040024004003000095
:020000040000fa
:040028004003000091
:020000040000fa
:04002c00400300008d
:020000040000fa
:040030004003000089
:020000040000fa
:040034004003000085
:020000040000fa
:040038004003000081
:020000040000fa
:04003c00400300007d
:020000040000fa
:040040004003000079
:020000040000fa
:040044004003000075
:020000040000fa
:040048004003000071
:020000040000fa
:04004c00400300006d
:020000040000fa
:040050004003000069
:020000040000fa
:04005400fa020000ac
:020000040000fa
:04005800220300007f
:020000040000fa
:04005c00400300005d
:020000040000fa
:040060004003000059
:020000040000fa
:040064004003000055
:020000040000fa
:040068004003000051
:020000040000fa
:04006c00400300004d
:020000040000fa
:040070004003000049
:020000040000fa
:040074004003000045
:020000040000fa
:040078004003000041
:020000040000fa
:04007c00400300003d
:020000040000fa
:040080004003000039
:020000040000fa
:040084004003000035
:020000040000fa
:040088004003000031
:020000040000fa
:04008c00400300002d
:020000040000fa
:040090004003000029
:020000040000fa
:040094004003000025
:020000040000fa
:040098004003000021
:020000040000fa
:04009c00400300001d
:020000040000fa
:0400a0004003000019
:020000040000fa
:0400a4004003000015
:020000040000fa
:0400a8004003000011
:020000040000fa
:0400ac00400300000d
:020000040000fa
:0400b0004003000009
:020000040000fa
:0400b4004003000005
:020000040000fa
:0400b8004003000001
:020000040000fa
:0400bc0040030000fd
:020000040000fa
:0400c00040030000f9
:020000040000fa
:0400c40040030000f5
:020000040000fa
:0400c80040030000f1
:020000040000fa
:0400cc0040030000ed
:020000040000fa
:0400d00040030000e9
:020000040000fa
:0400d40040030000e5
:020000040000fa
:0400d80040030000e1
:020000040000fa
:0400dc0040030000dd
:020000040000fa
:0400e00040030000d9
:020000040000fa
:0400e40040030000d5
:020000040000fa
:0400e80040030000d1
:020000040000fa
:0400ec0040030000cd
:020000040000fa
:0400f00040030000c9
:020000040000fa
:0400f40040030000c5
:020000040000fa
:0400f80040030000c1
:020000040000fa
:0400fc0040030000bd
:020000040000fa
:0401000040030000b8
:020000040000fa
:0401040040030000b4
:020000040000fa
:0401080040030000b0
:020000040000fa
:04010c0040030000ac
:020000040000fa
:0401100040030000a8
:020000040000fa
:0401140040030000a4
:020000040000fa
:0401180040030000a0
:020000040000fa
:04011c00400300009c
:020000040000fa
:040120004003000098
:020000040000fa
:040124004003000094
:020000040000fa
:040128004003000090
:020000040000fa
:04012c00400300008c
:020000040000fa
:040130004003000088
:020000040000fa
:040134004003000084
:020000040000fa
:040138004003000080
:020000040000fa
:04013c00400300007c
:020000040000fa
:040140004003000078
:020000040000fa
:040144004003000074
:020000040000fa
:040148004003000070
:020000040000fa
:04014c00400300006c
:020000040000fa
:040150004003000068
:020000040000fa
:040154004003000064
:020000040000fa
:040158004003000060
:020000040000fa
:04015c00400300005c
:020000040000fa
:040160004003000058
:020000040000fa
:040164004003000054
:020000040000fa
:040168004003000050
:020000040000fa
:04016c00400300004c
:020000040000fa
:040170004003000048
:020000040000fa
:040174004003000044
:020000040000fa
:040178004003000040
:020000040000fa
:04017c00400300003c
:020000040000fa
:040180004003000038
:020000040000fa
:040184004003000034
:020000040000fa
:040188004003000030
:020000040000fa
:04018c00400300002c
:020000040000fa
:040190004003000028
:020000040000fa
:040194004003000024
:020000040000fa
:040198004003000020
:020000040000fa
:04019c00400300001c
:020000040000fa
:0401a0004003000018
:020000040000fa
:0401a4004003000014
:020000040000fa
:0401a8004003000010
:020000040000fa
:0401ac00400300000c
:020000040000fa
:0401b0004003000008
:020000040000fa
:0401b4004003000004
:020000040000fa
:0401b8004003000000
:020000040000fa
:0401bc0040030000fc
:020000040000fa
:0401c00040030000f8
:020000040000fa
:0401c40040030000f4
:020000040000fa
:0401c80040030000f0
:020000040000fa
:0401cc0040030000ec
:020000040000fa
:0401d00040030000e8
:020000040000fa
:0401d40040030000e4
:020000040000fa
:0401d80040030000e0
:020000040000fa
:0401dc0040030000dc
:020000040000fa
:0401e00040030000d8
:020000040000fa
:0401e40040030000d4
:020000040000fa
:0401e80040030000d0
:020000040000fa
:0401ec0040030000cc
:020000040000fa
:0401f00040030000c8
:020000040000fa
:0401f40040030000c4
:020000040000fa
:0401f80040030000c0
:020000040000fa
:0401fc0040030000bc
:020000040000fa
:0402000040030000b7
:020000040000fa
:0402040040030000b3
:020000040000fa
:0402080040030000af
:020000040000fa
:04020c0040030000ab
:020000040000fa
:0402100040030000a7
:020000040000fa
:0402140040030000a3
:020000040000fa
:04021800400300009f
:020000040000fa
:04021c00400300009b
:020000040000fa
:040220004003000097
:020000040000fa
:040224004003000093
:020000040000fa
:04022800400300008f
:020000040000fa
:04022c00400300008b
:020000040000fa
:040230004003000087
:020000040000fa
:040234004003000083
:020000040000fa
:04023800400300007f
:020000040000fa
:04023c00400300007b
:020000040000fa
:040240004003000077
:020000040000fa
:040244004003000073
:020000040000fa
:04024800400300006f
:020000040000fa
:04024c00400300006b
:020000040000fa
:040250004003000067
:020000040000fa
:040254004003000063
:020000040000fa
:04025800400300005f
:020000040000fa
:04025c00400300005b
:020000040000fa
:040260004003000057
:020000040000fa
:040264004003000053
:020000040000fa
:04026800400300004f
:020000040000fa
:04026c00400300004b
:020000040000fa
:040270004003000047
:020000040000fa
:040274004003000043
:020000040000fa
:04027800400300003f
:020000040000fa
:04027c00400300003b
:020000040000fa
:040280004003000037
:020000040000fa
:040284004003000033
:020000040000fa
:04028800400300002f
:020000040000fa
:04028c00400300002b
:020000040000fa
:040290004003000027
:020000040000fa
:040294004003000023
:020000040000fa
:04029800400300001f
:020000040000fa
:04029c00400300001b
:020000040000fa
:0402a0004003000017
:020000040000fa
:0402a4004003000013
:020000040000fa
:0402a800400300000f
:020000040000fa
:0402ac00400300000b
:020000040000fa
:0402b0004003000007
:020000040000fa
:0402b4004003000003
:020000040000fa
:0402b80040030000ff
:020000040000fa
:0402bc0040030000fb
:020000040000fa
:0402c00040030000f7
:020000040000fa
:0402c40040030000f3
:020000040000fa
:0402c80040030000ef
:020000040000fa
:0402cc0040030000eb
:020000040000fa
:0402d00040030000e7
:020000040000fa
:0402d40040030000e3
:020000040000fa
:0402d80040030000df
:020000040000fa
:0402dc0040030000db
:020000040000fa
:0402e00040030000d7
:020000040000fa
:0402e40040030000d3
:020000040000fa
:0402e80040030000cf
:020000040000fa
:0402ec0040030000cb
:020000040000fa
:0402f00040030000c7
:020000040000fa
:0402f40040030000c3
:020000040000fa
:0402f80040030000bf
:020000040000fa
:0402fc0040030000bb
:020000040000fa
:0403000040030000b6
:020000040000fa
:0403040040030000b2
:020000040000fa
:0403080040030000ae
:020000040000fa
:04030c0040030000aa
:020000040000fa
:0403100040030000a6
:020000040000fa
:100400006f0021000eff24000e0188000000000094
:10041000000020000000e000020032000001200087
:100420002002880014000700970007000000e00089
:1004300003003a00c0412000010020000200370004
:100440000000200001002000810f70000100320038
:100450000f000700000020000000e0000200320052
:1004600000000200000000004c0302000000000039
:100470000040da000000fe00600020000000e00004
:1004800002003200002020009001880000000600d9
:10049000a1028800800478000000eb001f003700f4
:1004a000e284440054a0b4009905ba00e2844400f8
:1004b00054a0b4009906ba00e284440054a0b400e9
:1004c0000006eb00476fde00fd07b200ae018800ba
:1004d000636ce10003003a000ad801000000eb0061
:1004e0000e003700606ce10008003a00004deb00a0
:1004f0000a05e800020039003420ec000af0a000f0
:100500008b05e900f9ff3e00040037006168e10057
:10051000010032000086eb000b00070019c7ba008b
:100520000e04e0001905ba0003003a000a00e000da
:10053000dbff3a0000000600fe07b200ae028800b2
:100540008a047800f5ff37000cd0a300e20f4d00bd
:100550001c00390089027800354dba000a05e80010
:10056000020039003420ec000af0a0008b05e900fd
:100570000f003200254dba000a05e80002003900dc
:100580003420ec000af0a0008b05e90008003200de
:100590000c00e0000600320015cdba000a05e800a4
:1005a000020039003420ec000af0a0008b05e900bd
:1005b0008984e80054a0b4000b00e000e2ff3a0098
:1005c000000006009902ba00055d78008b05e9007d
:1005d000f7ff3200c82ade00055d78008b05e900d0
:1005e000f3ff32000c00e000f1ff320019ddba0029
:1005f000eeff3700801f78003200f8003400f8006a
:1006000010002000a0018800002020009001880038
:10061000000000000000fa000168a90010c0b3004b
:1006200002f0b700301180000040780001f0b70000
:100630000080fa003400f9003200f9004f00780021
:10064000004006003200f8003400f800881f7800ef
:1006500018002000a80188000820200098018800c8
:10066000000000004f0478000000fa000188a90093
:100670000080fa003400f9003200f9000040060062
:0c0680000040da000000fe000000050051
:020000040000fa
:0c068c00486500006c6c00006f0000006e
:020000040000fa
:100698000000fa000f00070060342800300007004f
:1006a8000000000002d0bf000004e000fdff32009f
:1006b8001100210091407800400021000148780095
:1006c80040002100260007000270ef000000000033
:1006d800f4ff37000000fa00f0c2b300c4e6b70028
:1006e800c133800000fc2f00008060000000a000e3
:1006f800c033880015eea800154ea90021e2a80015
:100708000111800090ff2f00008060000011880018
:100718002002a9002342a80070012000401188008f
:100728000168a9002168a80021428000f0ff280084
:100738000080600000c0a000204288000188a90055
:100748002188a8003142800080ff2f0000806000cf
:100758000000a000304288000080fa000000060077
:100768000400fa00100798000000eb00000f780062
:100778000d0037000000000011118000002020004b
:10078800008060000000e000fbff3a001e007800d7
:100798009e00900000804000104078000080fb0020
:1007a800201188001e0fe8001e0078009e009000af
:1007b80000804000104078000004e000edff3a009f
:1007c8000080fa00000006000200fa00004f7800de
:1007d8009e407800f0c7b30080cf5000120032006e
:1007e80018aea9000000000000128000620060003e
:1007f8000000e000fcff3a001e4078000080fb008b
:1008080040128800000000000012800061006000b3
:100818000000e000fcff3200401280000040780039
:1008280000f0b70018aea8000080fa00000006002b
:020000040000fa
:10083800041000000200000080000000001000000a
:0c08480004000000800000000000000020
:020000040000fa
:020000040005f5
:045740009fff0000c7
:020000040000fa
:020000040005f5
:04575000fdff000059
:00000001FF
