:020000040000fa
:080000000002040000000000f2
:020000040000fa
:04000800fa020000f8
:020000040000fa
:04000c00fa020000f4
:020000040000fa
:04001000fa020000f0
:020000040000fa
:04001400fa020000ec
:020000040000fa
:04001800fa020000e8
:020000040000fa
:04001c00fa020000e4
:020000040000fa
:04002000fa020000e0
:020000040000fa
:04002400fa020000dc
:020000040000fa
:04002800fa020000d8
:020000040000fa
:04002c00fa020000d4
:020000040000fa
:04003000fa020000d0
:020000040000fa
:04003400fa020000cc
:020000040000fa
:04003800fa020000c8
:020000040000fa
:04003c00fa020000c4
:020000040000fa
:04004000fa020000c0
:020000040000fa
:04004400fa020000bc
:020000040000fa
:04004800fa020000b8
:020000040000fa
:04004c00fa020000b4
:020000040000fa
:04005000fa020000b0
:020000040000fa
:04005400fa020000ac
:020000040000fa
:04005800fa020000a8
:020000040000fa
:04005c00fa020000a4
:020000040000fa
:04006000fa020000a0
:020000040000fa
:04006400fa0200009c
:020000040000fa
:04006800fa02000098
:020000040000fa
:04006c00fa02000094
:020000040000fa
:04007000fa02000090
:020000040000fa
:04007400fa0200008c
:020000040000fa
:04007800fa02000088
:020000040000fa
:04007c00fa02000084
:020000040000fa
:04008000fa02000080
:020000040000fa
:04008400fa0200007c
:020000040000fa
:04008800fa02000078
:020000040000fa
:04008c00fa02000074
:020000040000fa
:04009000fa02000070
:020000040000fa
:04009400fa0200006c
:020000040000fa
:04009800fa02000068
:020000040000fa
:04009c00fa02000064
:020000040000fa
:0400a000fa02000060
:020000040000fa
:0400a400fa0200005c
:020000040000fa
:0400a800fa02000058
:020000040000fa
:0400ac00fa02000054
:020000040000fa
:0400b000fa02000050
:020000040000fa
:0400b400fa0200004c
:020000040000fa
:0400b800fa02000048
:020000040000fa
:0400bc00fa02000044
:020000040000fa
:0400c000fa02000040
:020000040000fa
:0400c400fa0200003c
:020000040000fa
:0400c800fa02000038
:020000040000fa
:0400cc00fa02000034
:020000040000fa
:0400d000fa02000030
:020000040000fa
:0400d400fa0200002c
:020000040000fa
:0400d800fa02000028
:020000040000fa
:0400dc00fa02000024
:020000040000fa
:0400e000fa02000020
:020000040000fa
:0400e400fa0200001c
:020000040000fa
:0400e800fa02000018
:020000040000fa
:0400ec00fa02000014
:020000040000fa
:0400f000fa02000010
:020000040000fa
:0400f400fa0200000c
:020000040000fa
:0400f800fa02000008
:020000040000fa
:0400fc00fa02000004
:020000040000fa
:04010000fa020000ff
:020000040000fa
:04010400fa020000fb
:020000040000fa
:04010800fa020000f7
:020000040000fa
:04010c00fa020000f3
:020000040000fa
:04011000fa020000ef
:020000040000fa
:04011400fa020000eb
:020000040000fa
:04011800fa020000e7
:020000040000fa
:04011c00fa020000e3
:020000040000fa
:04012000fa020000df
:020000040000fa
:04012400fa020000db
:020000040000fa
:04012800fa020000d7
:020000040000fa
:04012c00fa020000d3
:020000040000fa
:04013000fa020000cf
:020000040000fa
:04013400fa020000cb
:020000040000fa
:04013800fa020000c7
:020000040000fa
:04013c00fa020000c3
:020000040000fa
:04014000fa020000bf
:020000040000fa
:04014400fa020000bb
:020000040000fa
:04014800fa020000b7
:020000040000fa
:04014c00fa020000b3
:020000040000fa
:04015000fa020000af
:020000040000fa
:04015400fa020000ab
:020000040000fa
:04015800fa020000a7
:020000040000fa
:04015c00fa020000a3
:020000040000fa
:04016000fa0200009f
:020000040000fa
:04016400fa0200009b
:020000040000fa
:04016800fa02000097
:020000040000fa
:04016c00fa02000093
:020000040000fa
:04017000fa0200008f
:020000040000fa
:04017400fa0200008b
:020000040000fa
:04017800fa02000087
:020000040000fa
:04017c00fa02000083
:020000040000fa
:04018000fa0200007f
:020000040000fa
:04018400fa0200007b
:020000040000fa
:04018800fa02000077
:020000040000fa
:04018c00fa02000073
:020000040000fa
:04019000fa0200006f
:020000040000fa
:04019400fa0200006b
:020000040000fa
:04019800fa02000067
:020000040000fa
:04019c00fa02000063
:020000040000fa
:0401a000fa0200005f
:020000040000fa
:0401a400fa0200005b
:020000040000fa
:0401a800fa02000057
:020000040000fa
:0401ac00fa02000053
:020000040000fa
:0401b000fa0200004f
:020000040000fa
:0401b400fa0200004b
:020000040000fa
:0401b800fa02000047
:020000040000fa
:0401bc00fa02000043
:020000040000fa
:0401c000fa0200003f
:020000040000fa
:0401c400fa0200003b
:020000040000fa
:0401c800fa02000037
:020000040000fa
:0401cc00fa02000033
:020000040000fa
:0401d000fa0200002f
:020000040000fa
:0401d400fa0200002b
:020000040000fa
:0401d800fa02000027
:020000040000fa
:0401dc00fa02000023
:020000040000fa
:0401e000fa0200001f
:020000040000fa
:0401e400fa0200001b
:020000040000fa
:0401e800fa02000017
:020000040000fa
:0401ec00fa02000013
:020000040000fa
:0401f000fa0200000f
:020000040000fa
:0401f400fa0200000b
:020000040000fa
:0401f800fa02000007
:020000040000fa
:0401fc00fa02000003
:020000040000fa
:04020000fa020000fe
:020000040000fa
:04020400fa020000fa
:020000040000fa
:04020800fa020000f6
:020000040000fa
:04020c00fa020000f2
:020000040000fa
:04021000fa020000ee
:020000040000fa
:04021400fa020000ea
:020000040000fa
:04021800fa020000e6
:020000040000fa
:04021c00fa020000e2
:020000040000fa
:04022000fa020000de
:020000040000fa
:04022400fa020000da
:020000040000fa
:04022800fa020000d6
:020000040000fa
:04022c00fa020000d2
:020000040000fa
:04023000fa020000ce
:020000040000fa
:04023400fa020000ca
:020000040000fa
:04023800fa020000c6
:020000040000fa
:04023c00fa020000c2
:020000040000fa
:04024000fa020000be
:020000040000fa
:04024400fa020000ba
:020000040000fa
:04024800fa020000b6
:020000040000fa
:04024c00fa020000b2
:020000040000fa
:04025000fa020000ae
:020000040000fa
:04025400fa020000aa
:020000040000fa
:04025800fa020000a6
:020000040000fa
:04025c00fa020000a2
:020000040000fa
:04026000fa0200009e
:020000040000fa
:04026400fa0200009a
:020000040000fa
:04026800fa02000096
:020000040000fa
:04026c00fa02000092
:020000040000fa
:04027000fa0200008e
:020000040000fa
:04027400fa0200008a
:020000040000fa
:04027800fa02000086
:020000040000fa
:04027c00fa02000082
:020000040000fa
:04028000fa0200007e
:020000040000fa
:04028400fa0200007a
:020000040000fa
:04028800fa02000076
:020000040000fa
:04028c00fa02000072
:020000040000fa
:04029000fa0200006e
:020000040000fa
:04029400fa0200006a
:020000040000fa
:04029800fa02000066
:020000040000fa
:04029c00fa02000062
:020000040000fa
:0402a000fa0200005e
:020000040000fa
:0402a400fa0200005a
:020000040000fa
:0402a800fa02000056
:020000040000fa
:0402ac00fa02000052
:020000040000fa
:0402b000fa0200004e
:020000040000fa
:0402b400fa0200004a
:020000040000fa
:0402b800fa02000046
:020000040000fa
:0402bc00fa02000042
:020000040000fa
:0402c000fa0200003e
:020000040000fa
:0402c400fa0200003a
:020000040000fa
:0402c800fa02000036
:020000040000fa
:0402cc00fa02000032
:020000040000fa
:0402d000fa0200002e
:020000040000fa
:0402d400fa0200002a
:020000040000fa
:0402d800fa02000026
:020000040000fa
:0402dc00fa02000022
:020000040000fa
:0402e000fa0200001e
:020000040000fa
:0402e400fa0200001a
:020000040000fa
:0402e800fa02000016
:020000040000fa
:0402ec00fa02000012
:020000040000fa
:0402f000fa0200000e
:020000040000fa
:0402f400fa0200000a
:020000040000fa
:0402f800fa02000006
:020000040000fa
:0402fc00fa02000002
:020000040000fa
:04030000fa020000fd
:020000040000fa
:04030400fa020000f9
:020000040000fa
:04030800fa020000f5
:020000040000fa
:04030c00fa020000f1
:020000040000fa
:04031000fa020000ed
:020000040000fa
:100400004f0021000eff24000e01880000000000b4
:10041000000020000000e000020032000001200087
:100420002002880014000700740007000000e000ac
:1004300003003a004049200001002000020037007c
:100440000000200001002000810f70000100320038
:100450000f000700000020000000e0000200320052
:10046000000002000000000016030200000000006f
:100470000040da000000fe00600120000000e00003
:1004800002003200002020009001880000000600d9
:10049000a1028800800478000000eb001f003700f4
:1004a000e284440054a0b4009905ba00e2844400f8
:1004b00054a0b4009906ba00e284440054a0b400e9
:1004c0000006eb00476fde00fd07b200ae018800ba
:1004d000636ce10003003a000ad801000000eb0061
:1004e0000e003700606ce10008003a00004deb00a0
:1004f0000a05e800020039003420ec000af0a000f0
:100500008b05e900f9ff3e00040037006168e10057
:10051000010032000086eb000b00070019c7ba008b
:100520000e04e0001905ba0003003a000a00e000da
:10053000dbff3a0000000600fe07b200ae028800b2
:100540008a047800f5ff37000cd0a300e20f4d00bd
:100550001c00390089027800354dba000a05e80010
:10056000020039003420ec000af0a0008b05e900fd
:100570000f003200254dba000a05e80002003900dc
:100580003420ec000af0a0008b05e90008003200de
:100590000c00e0000600320015cdba000a05e800a4
:1005a000020039003420ec000af0a0008b05e900bd
:1005b0008984e80054a0b4000b00e000e2ff3a0098
:1005c000000006009902ba00055d78008b05e9007d
:1005d000f7ff3200c82ade00055d78008b05e900d0
:1005e000f3ff32000c00e000f1ff320019ddba0029
:1005f000eeff37000040da000000fe0000000500ba
:020000040000fa
:100600004d610000636b0000656e00007a690000b8
:10061000652000004c65000065200000536100006b
:0c062000776100006c6c0000000000001e
:020000040000fa
:10062c000000fa0014cea90018cea900a300070000
:10063c00950007008040eb0010c5b3000a000700ce
:10064c008040eb0060c4b3000700070021c0b3007a
:10065c0030c5b300040007000230ef000030280062
:10066c0076000700ffff37000200fa00004f780009
:10067c0011479800e0cfb300390007001e40780006
:10068c00370007001e4090000004e000020032001a
:10069c001e40900032000700e0c4b3009e4078007a
:1006ac0080cf50002c003a00108080000000e00049
:1006bc0006003a00f00420001080880071c6b300d8
:1006cc0050c4b300e8ff07002300370010808000ff
:1006dc00f40f500007003a00108080000000e90081
:1006ec001080880031c1b30050c4b300deff070096
:1006fc00190037001180800080022000808f50008c
:10070c0007003a00108080000000e900108088008b
:10071c0031c5b30050c4b300d3ff07000e0037003f
:10072c0011808000c0032000808f500007003a0029
:10073c00108080000000e9001080880071c2b300b6
:10074c0050c4b300c8ff07000300370010808000be
:10075c000000e900108088000080fa00000006000c
:10076c000200fa00004f780018aea900000000004b
:10077c0000128000620060000000e000fcff3a0004
:10078c001e80fb0040128800000000000012800058
:10079c00610060000000e000fcff320040128000ad
:1007ac000040780000f0b70018aea8001080800060
:1007bc000000e8001080880010808000f40f5000ca
:1007cc0004003a0001c4b30050c4b300a6ff0700f4
:1007dc00180037001180800080022000808f5000ac
:1007ec0004003a0041c1b30050c4b3009eff07009f
:1007fc001000370011808000c0032000808f500053
:10080c0004003a0041c5b30050c4b30096ff070082
:10081c00080037001180800000052000808f5000f8
:10082c0004003a008040eb0050c4b3008eff070078
:10083c000230ef000080fa00000006000400fa000d
:10084c00100798000000eb00000f78000000eb0090
:10085c00000f7800050037001e0090001e004000bd
:10086c0010407800beff07001e0fe8001e0090002d
:10087c001e004000104078000004e000f6ff3a0033
:10088c000080fa00000006000000fa00230ea90008
:10089c0022eea900150ea90014eea90014aea900b1
:1008ac0018aea80042a2a8004322a80042c2a80089
:1008bc0041e2a8000080fa00000006000800fa00df
:1008cc006000b800008fbe00006a280011002000f4
:1008dc0020079800310798006000b800008fbe0018
:1008ec00050037000000000012002000030020006b
:1008fc001e0f41005e9749002e009000be00900034
:10090c001e0178009e019000800f5100818f5900cc
:0c091c00f4ff35000080fa000000060027
:020000040000fa
:10092800001000000400000080000000000000002b
:020000040000fa
:020000040005f5
:045740009fff0000c7
:020000040000fa
:020000040005f5
:04575000fdff000059
:00000001FF
